:0A03AA000808140A06050C370006C7
:0702DE001202E5AD177F8A53
:1002E500D2965307FEE4FEEF30E004D2958002C2B9
:1002F50095D294C294EFC313FF0EBE08EAE4FEED57
:1003050030E004D2958002C295D294C294EDC31315
:07031500FD0EBE08EAC296CE
:01031C0022BE
:10031D00D296430701E4FDEF30E004D2958002C28E
:10032D0095D294C294EFC313FF0DBD08EAE4FDEE20
:10033D00C313FE309505430680800353067FD29488
:0A034D00C2940DBD08E9C296AF0688
:010357002283
:10018600E4FF74082FF8E6FE75F00A84FDEE75F0BC
:100196000A8474102FF8A6F0EDC454F0FE74102FE4
:1001A600F8EE26F60FBF08DAE4FD7F8E1202E57D33
:1001B600807F801202E5AD117F8C1202E5AD127FC1
:1001C600881202E5AD137F861202DEAD147F84121B
:1001D60002E5AD157F821202E5AD167F801202DEC2
:0701E6007D807F8E0202E51F
:1001ED007F8C12031D8F117F8812031D8F127F8646
:1001FD0012031D8F137F8412031D8F147F82120330
:10020D001D8F157F8012031DEF547FF5167F8A1207
:10021D00031D8F17E4FF74102FF8E6FEC4540FFD75
:10022D00EE540FFE74082FF8A606ED75F00AA4FE25
:0B023D0074082FF8EE26F60FBF08DB58
:010248002293
:0B03B800C296C294E4FD7F800202E5C3
:100398003F065B4F666D7D077F6FFEFDFBF7EFDF66
:0203A800BF7F15
:0303B40001210024
:10000E001203C31203B8120186120249BF010A0578
:10001E0018E518B40303E4F5183000EDC200120120
:10002E00EDE518703EE50C75F00A8490039893F593
:10003E0024E50C75F00A84E5F093F525752640E568
:10004E000D75F00A8493F527E50D75F00A84E5F039
:10005E0093F528752940E50E75F00A8493F52AE587
:10006E000E8042E51864017048E50975F00A849027
:10007E00039893F524E50975F00A84E5F093F525C8
:10008E00752640E50A75F00A8493F527E50A75F0A2
:10009E000A84E5F093F528752940E50B75F00A847E
:1000AE0093F52AE50B75F00A84E5F093F52B020023
:1000BE0017E51864026003020017752440E50F75FA
:1000CE00F00A84E5F090039893F525752640E4F543
:1000DE0027F528F529E50E75F00A8493F52AE50E25
:0C00EE0075F00A84E5F093F52B02001772
:03000300DFFE22FB
:10038300AE07AF061EEF600C7FF51200037FF51278
:05039300000380EE22D2
:10035800E4F580D2A2C2A2E5212F9003A293F580F2
:10036800D2A3C2A374242521F8E6F580D2A2C2A2A2
:0A0378000521E521B50503E4F52198
:010382002258
:0A03C300438901D2AFD2A9D28C22E7
:03000B0002029D51
:10029D00C0E0C083C082C0D075D000C000C005C012
:0102AD000749
:1002AE00758CF8758A307D08E4FF1203580523E536
:1002BE002370020522643245227006F522F523D200
:0102CE00002F
:0F02CF00D007D005D000D0D0D082D083D0E0327D
:10024900E5B0F4604C7F0A120383E5B0F46042AF75
:10025900B0E5B0B4FFFBEF2481603024C0602924ED
:10026900E0602224F0601B24F8601424FC600D2453
:10027900FE60061470187F01227F02227F03227F0D
:1002890004227F05227F06227F07227F08227F0022
:03029900227F00C1
:01029C00223F
:030000000200FA01
:0C00FA00787FE4F6D8FD75812B020141EF
:1001060002000EE493A3F8E493A34003F68001F201
:1001160008DFF48029E493A3F85407240CC8C333FA
:10012600C4540F4420C8834004F456800146F6DFC9
:10013600E4800B01020408102040809003AAE47EAC
:10014600019360BCA3FF543F30E509541FFEE493BE
:10015600A360010ECF54C025E060A840B8E493A385
:10016600FAE493A3F8E493A3C8C582C8CAC583CAB0
:10017600F0A3C8C582C8CAC583CADFE9DEE780BE68
:0103B7000045
:00000001FF
