:1003AF007580FFC2A4D2A5C2A600D2A6E5803322D3
:10038D001203AF40FBC2A4C2A5D2A68F8000C2A6A5
:01039D00223D
:10039E001203AF40FBD2A4C2A5D2A68F8000C2A684
:0103AE00222C
:0A03CA007F0112038D7F0502037806
:10030300AE07ED7005EE24808003EE24C0FF1203D8
:100313008D120347FF600C12039E740129F9E43A1E
:04032300FA80EE224C
:10036000AE07AC03ED7005EE24808003EE24C0FFE1
:0803700012038DAF0402039E8D
:100267007F3812038D7F051203787F3812038D7F45
:10027700051203787F3812038D7F051203787F38C4
:1002870012038D7F0812038D7F0112038D7F0612E3
:0B029700038D1F1203787F0C02038D03
:0303DB00DFFE2220
:10037800AE07AF061EEF600C7FF51203DB7FF512A8
:0503880003DB80EE2202
:100327007777772E646F666C79652E6E657420001B
:10033700707265737320746865206B65792120007E
:1002D7001202677F0A1203781203CA1203D47BFF44
:1002E7007A037927E4FDFF1203037BFF7A0379374B
:0C02F7007D01E4FF1203031203BF80FB33
:100006001C6132622163236424652B66346733687E
:1000160043693B6A426B4B6C3A6D316E446F4D706F
:1000260015712D721B732C743C752A761D772278F8
:1000360035791A7A453016311E32263325342E3557
:1000460036363D373E3846390E604E2D553D5D5CA1
:100056002920545B5B5D4C3B5227412C492E4A2F8D
:10006600712E7030693172327A336B34733574366F
:100076006C3775387D391C4132422143234424456F
:100086002B463447334843493B4A424B4B4C3A4D47
:10009600314E444F4D5015512D521B532C543C5547
:1000A6002A561D57225835591A5A453016311E32CE
:1000B600263325342E3536363D373E3846390E7EC4
:1000C6004E5F552B5D7C2920547B5B7D4C3A52223A
:1000D600413C493E4A3F712E7030693172327A3363
:0C00E6006B34733574366C3775387D3917
:0203DE00C1015B
:030003000202A254
:1002A200C0E0C0D0E50AD394004012E50A94095098
:1002B2000CE508C313F50830B303430880050A3080
:1002C200B2FDE50AD3940A4007750A00D201C2AF13
:0502D200D0D0D0E032A5
:0200F2008F0B72
:1000F4003002030201C6E50B24EE600D24B9600E44
:100104002469700FD2020201D8D2000201D8D200B1
:100114000201D8200055E4F50CE50C25E02406F591
:1001240082E43400F583E493FF650B600BE50CC3B4
:10013400943B5004050C80E1EF650B60030201D889
:10014400E50C25E02407F582E43400F583E493F517
:100154000DE509540FFFE509C4540FFDAB0D12035F
:10016400600509E5096421706B804FE4F50CE50C2A
:1001740025E0247CF582E43400F583E493FF650BE9
:10018400600BE50CC3943B5004050C80E1EF650B58
:100194007042E50C25E0247DF582E43400F583E427
:1001A40093F50DE509540FFFE509C4540FFDAB0D9C
:1001B4001203600509E509B4211A1203CAE4F5091A
:1001C4008012C202E50B24A7600824477006C2000F
:0601D4008002C200C2011E
:0101DA002202
:0703D400C28AD2AFD2A822B9
:0B03BF00300105AF080200F2D2AF22AF
:030000000201DB1F
:0C01DB00787FE4F6D8FD75812002022236
:10034700BB010689828A83E0225002E722BBFE02B4
:09035700E32289828A83E49322E7
:1001E7000202D7E493A3F8E493A34003F68001F255
:1001F70008DFF48029E493A3F85407240CC8C33319
:10020700C4540F4420C8834004F456800146F6DFE7
:10021700E4800B01020408102040809003DEE47E96
:10022700019360BCA3FF543F30E509541FFEE493DC
:10023700A360010ECF54C025E060A840B8E493A3A3
:10024700FAE493A3F8E493A3C8C582C8CAC583CACE
:10025700F0A3C8C582C8CAC583CADFE9DEE780BE86
:0103E000001C
:00000001FF
