:1009F9007777772E646F666C79652E6E6574004C17
:100A09004344313630322074657374206F6B210092
:100A190031A1A2323463303220B2E2CAD4D5B3A3B1
:100A29000A0031A1A2323463303220B4EDCEF3583A
:100A3900585858A3ACC7EBBCECB2E2B6C5B0EECF80
:100A4900DFC1ACBDD30A0032A1A241444320B2E2C6
:100A5900CAD4D5B3A30A0032A1A241444320B4EDBC
:100A6900CEF358585858A3ACC7EBBCECB2E2B6C5A4
:100A7900B0EECFDFC1ACBDD30A0033A1A2445331DC
:100A890033303220B2E2CAD4D5B3A30A0033A1A2CB
:100A990044533133303220B2E2CAD4B4EDCEF358E4
:100AA9005858582CC7EBBCECB2E2B6C5B0EECFDF54
:100AB900C1ACBDD30A0034A1A2BCECB2E938CEBBAB
:100AC900CAC2EBB9DCCAC7B7F1C8ABC1C10A0035A4
:100AD900A1A24A39C8ABB2BFBDD3474E44A3ACBCEF
:100AE900ECB2E938CEBB4C4544CAC7B7F1C8ABC173
:100AF900C10A0036A1A24A36C8ABB2BFBDD3474E20
:100B090044A3ACBCECB2E9B5A5B8F6B9B2D1F4CA04
:100B1900C2EBB9DCCAC7B7F1C8ABC1C10A0037A17A
:100B2900A2C7EBB2E5C8EB3138423230A3ACC7EB10
:100B3900B5C8B4A3A10A00202020CFD6D4DACEC2EA
:100B4900B6C82025372E336620B6C80A00202020D3
:100B5900C8D5C6DA20253032642D253032642D25DA
:100B690030326420D0C7C6DA25640A00202020CAA2
:100B7900B1BCE420253032643A253032643A25305C
:100B890032640A0038A1A2C1ACBDD35030BFDAB576
:100B9900BD4A3234A3ACC7EBB0B4C8CED2E2BED89A
:100BA900D5F3B0B4BCFCA3A10A0039A1A2C7EBB22A
:100BB900E5C8EBB5E3D5F3A3ACBCECB2E9CAC7B75A
:100BC900F1C8ABB2BFB5E3C1C1A3A10A002020207F
:100BD900C8E7B9FBD5B3A3A3ACC7EBB0CEB5F4B5A1
:100BE900E3D5F3A3ACB7C0D6B9B9A6BAC4B9B4F3BF
:100BF9000A00BED8D5F3BCFCC5CCBCFCD6B5CAC767
:100C0900A3BA253032640A00CAB1BCE420253032C7
:0D0C1900643A253032643A253032640A0016
:10141C008F24AF241524EF60167FFA12000E7FFA8A
:10142C0012000E7FFA12000E7FFA12000E80E322D9
:100C26007522551215201215121211E87F1E120098
:100C36000E7BFF7A0979F9E4FDFF1212D27BFF7A67
:100C46000A79087D01E4FF1212D2C2A612152B758D
:100C560080FFD2A7C2A7E4F580D2A3C2A37F011268
:100C6600141C7B007A0079227529017D907FAE12D3
:100C760010457F3C12000EE4F522FB7A00792275BE
:100C860029017D907FAE12109DE5227BFFB45506AB
:100C96007A0A791980047A0A792B1205EC7F0112F7
:100CA600141C120DE87BFFBF02067A0A79508004F5
:100CB6007A0A79601205EC7F0112141C120F821257
:100CC6000FE9E5417BFFB40A067A0A798380047A44
:100CD6000A79961205EC7F0112141C7BFF7A0A79B9
:100CE600BF1205EC7F0112141C7BFF7A0A79D81219
:100CF60005EC7BFF7A0A79FC1205EC7F0112141CC5
:100D06007BFF7A0B79271205EC7F0112141C121156
:100D1600707F0112141C121170AD07AC06EC1201A3
:100D260031E4FBFA7980783D1200268F2A8E298DD0
:100D3600288C277BFF7A0B79401205EC7F01121471
:100D46001C120FE97BFF7A0B79567527008541281F
:100D560075290085422A752B0085432C752D008543
:100D6600472E1205EC7BFF7A0B79757527008544B3
:100D76002875290085452A752B0085462C1205EC19
:100D86007F0112141C7BFF7A0B798D1205EC7F0113
:100D960012141C7BFF7A0B79B31205EC7BFF7A0BDE
:100DA60079D61205EC120F148F23E523F460F67B37
:100DB600FF7A0B79FB7527008F281205EC120FE9D5
:100DC6007BFF7A0C791175270085442875290085E3
:100DD600452A752B0085462C1205EC7F3212000E33
:020DE60080C3C8
:03000B000210F0F0
:1010F000C0E0C0F0C083C082C0D075D000C000C0C6
:1011000001C002C003C004C005C006C007758CF84A
:10111000758A3012143CD007D006D005D004D00315
:10112000D002D001D000D0D0D082D083D0F0D0E097
:01113000328C
:10138300101028545EAC010000CB28ACBE03030050
:02139300001543
:10135B00C200D2937F0512153BC2937FC812153B77
:10136B007FC812153BD2937F3212153BA29392008A
:07137B007F1912153BA200CF
:011382002248
:10133200E4F525F526752508C293E526C313F5269F
:10134200D2933093034326807F1912153B1525E56E
:0813520025D3940050E2AF2600
:01135A002270
:021308008F252F
:10130A00E4F526752608C293E5251392937F1912F0
:10131A00153BD293E525C313F5251526E526D39467
:08132A000050E37F1902153B9E
:10117000E4F524FFFEFDFC12135B7FCC1213087F05
:10118000441213087F0A12000E12135B7FCC121355
:10119000087FBE1213081213328F24121332EF7F0E
:0B11A00000FEEF2524FDE43EFEAF053D
:0111AB002221
:03153B00DFFE22AE
:10000E00AE07AF061EEF600C7FF512153B7FF512A3
:05001E00153B80EE22FD
:0A1395000840140A06050C37000694
:07113100121138AD4F7F8A57
:10113800D2965307FEE4FEEF30E004D2958002C257
:1011480095D294C294EFC313FF0EBE08EAE4FEEDF5
:1011580030E004D2958002C295D294C294EDC313B4
:07116800FD0EBE08EAC2966D
:01116F00225D
:10122400D296430701E4FDEF30E004D2958002C278
:1012340095D294C294EFC313FF0DBD08EAE4FDEE0A
:10124400C313FE309505430680800353067FD29472
:0A125400C2940DBD08E9C296AF0672
:01125E00226D
:100F8200E4FF74402FF8E6FE75F00A84FDEE75F07A
:100F92000A8474482FF8A6F0EDC454F0FE74482F6A
:100FA200F8EE26F60FBF08DAE4FD7F8E1211387DC7
:100FB200807F80121138AD497F8C121138AD4A7F83
:100FC20088121138AD4B7F86121131AD4C7F8412DD
:100FD2001138AD4D7F82121138AD4E7F8012113122
:070FE2007D807F8E021138B3
:100FE9007F8C1212248F497F881212248F4A7F86A0
:100FF9001212248F4B7F841212248F4C7F8212127B
:10100900248F4D7F80121224EF547FF54E7F8A1270
:1010190012248F4FE4FF74482FF8E6FEC4540FFDE5
:10102900EE540FFE74402FF8A606ED75F00AA4FEE3
:0B10390074402FF8EE26F60FBF08DB16
:011044002289
:0B152000C296C294E4FD7F80021138E7
:10148E00D2B500D2B40000000000C2B500000000CA
:06149E0000C2B4000022B0
:1014DF00C2B500D2B40000000000D2B50000000079
:0114EF0022DA
:1011AC00E4FEEFA806088002C333D8FC30E704D273
:1011BC00B58002C2B500D2B40000000000C2B40E6B
:1011CC00BE08DF0000D2B50000D2B400000030B57C
:0B11DC0004C2098002D209C2B4000066
:0111E70022E5
:1013F800E4FFD2B5FE00C2B40000000000D2B40081
:1014080000EF25E0FF30B5010F00000EBE08E6C270
:03141800B400001D
:01141B0022AE
:1014F000C2B5000000D2B40000000000C2B4000079
:0115000022C8
:10150100D2B5000000D2B40000000000C2B4000057
:0115110022B7
:0A1045008F248D258B268A27892829
:10104F00E4F52AE52AC39529504212148EAF2412D3
:10105F0011AC200902C322AF251211AC200902C323
:10106F0022AB26AA27A9281204EEFF1211AC2009E1
:10107F0002C3221214DF7F0112000E74012528F51E
:0D108F0028E43527F5270525052A80B7D36D
:01109C002231
:02109D00AC079E
:10109F0012148E1211AC200902C322AF051211AC2B
:1010AF00200902C32212148EEC04FF1211AC200986
:1010BF0002C322E4FDE52914FFEDC39F5014121360
:1010CF00F8EF1205341214F0740129F9E43AFA0D0D
:1010DF0080E31213F8EF1205341215011214DFD347
:0110EF0022DE
:1012990075800FE580540FF524640F60297F0A12C9
:1012A900000EE580540F640F601CE580540FF5248F
:1012B90044F0F580E58054F0FFE58054F0FEBEF07F
:0812C900F8E5242FFF227FFF4E
:0112D10022FA
:100F1400121299EF1205640F58770F557B0F527D0B
:100F24000F4F7E0F64B70F61BB0F5EBD0F5BBE0F2B
:100F340070D70F6DDB0F6ADD0F67DE0F7CE70F796B
:100F4400EB0F76ED0F73EE00000F7F7F00227F0121
:100F5400227F02227F03227F04227F05227F062232
:100F64007F07227F08227F09227F0A227F0B227FAC
:0E0F74000C227F0D227F0E227F0F227FFF2294
:0E151200759850438920758DFDD28ED2992296
:0300230002145A6A
:07145A00C0D075D000C007EF
:10146100309808C298AF998F908F99309902C2999C
:05147100D007D0D032CD
:100DE800E4F524F526F525E4FF1213AA0525E525E3
:100DF800C3940540F2E4F525E4FF12125F8F240541
:100E080025E525C3940540F0E524D394644008E51E
:100E180024949650020526E4F5257F0112125F8F6F
:100E2800240525E525C3940540F0E524D3946440C2
:100E380008E524949650020526E4F5257F0212124F
:100E48005F8F240525E525C3940540F0E524D39458
:100E5800644008E524949650020526E4F5257F03AE
:100E680012125F8F240525E525C3940540F0E5247B
:0F0E7800D394644008E524949650020526AF26D3
:010E87002248
:02125F008F27D7
:1012610012148E7F901211AC2009037F0022E52712
:101271004440FF1211AC2009037F002212148E7F1B
:10128100911211AC2009037F00221213F88F28124A
:0712910015011214DFAF2864
:011298002233
:1013AA008F2712148E7F901211AC200902C3227F5C
:1013BA00401211AC200902C322AF271211AC200936
:0713CA0002C3221214DF220E
:0A139F0008510102040810204080EC
:1014CC00E4FEC291EF339292EF25E0FFD2910EBE73
:0214DC0008F016
:0114DE0022EB
:080003001214CCAF050214CC6D
:06153500C29000D29022DA
:10147600E4FEC2A1EF3392A0EF25E0FFD2A10EBE9B
:0714860008F0C2A200D2A28F
:01148D00223C
:10143C0074512550F8E6FF121476E4FDFF120003F8
:0D144C001215350550E550B40803E4F550C5
:011459002270
:0A152B00438901D2AFD2A9D28C226D
:1014A4008F287F0512000EC2A4C2A5D2A68528806B
:0414B40000C2A622AA
:1014B8008F287F0512000ED2A4C2A5D2A685288047
:0414C80000C2A62296
:1012D2008F248B258A268927ED7006E524248080B9
:1012E20004E52424C0FF1214A4AB25AA26A92712C0
:1012F20004EEFF60101214B874012527F527E435B7
:0613020026F52680E4221E
:1011E8007F381214A47F0512000E7F381214A47FD2
:1011F8000512000E7F381214A47F0512000E7F38E6
:101208001214A47F081214A47F011214A47F0612DA
:0C12180014A47F0512000E7F0C0214A429
:10002600EC4D6011E8497017ED33EC3304600DE4D4
:10003600FCFFFEFD22E933E8330470F802019F124B
:10004600016A58046009E4CC24815006285009024C
:1000560001A92840030201A6C0E0EB4A7044B9801A
:1000660006D0E0FB020195EF4E701CBD8008EBFF49
:10007600EAFEE9FD80EBE98DF0A4FEE5F002010F52
:10008600E9CDF9EAFEEBFFEF89F0A4FCE5F0CE89B5
:10009600F0A42EFFE435F0CD89F0A42DFEE435F072
:1000A6008067EF4E7005BD80D780C3EF8BF0A4ACA0
:1000B600F0EE8BF0A42CFCE435F0F8EF8AF0A42CDB
:1000C600E5F038FCE433CB8DF0A42CFCE5F03BF8EE
:1000D600EE8AF0A42CFCE5F038F8E433CF89F0A4DE
:1000E6002CFCE5F038CF3400CE89F0A42FFFE5F0E4
:1000F6003EFEE433C98DF0A42EFEE5F039CD8AF03C
:10010600A42FFFE5F03EFEE43DFD33D0E0FB5007B3
:100116000BBB000F0201A9EC2CFCEF33FFEE33FE04
:06012600ED33FD02018132
:10012C0075F020800E75F010800575F0087D007E4E
:10013C00007F003392D530D503120546EC334010C6
:10014C00EF33FFEE33FEED33FDEC33FCD5F0ED2257
:0E015C00E5F0247EA2D513CC92E7CDCEFF2293
:10058A00E53B2427F8E6053B227824300702782742
:10059A00E475F0011205540204EE2000EB7F2ED21E
:1005AA00008018EF540F2490D43440D4FF30040B49
:1005BA00EF24BFB41A0050032461FFE53C60021522
:1005CA003C053FE53F7002053E30070D7824E4758F
:1005DA00F001120554EF0205340213D17403D20755
:1005EA008003E4C207F53B8B248A258926E4F53C7F
:1005FA00F53EF53FE53C60077F201205C580F5759D
:10060A003DFFC201C200C202C203C205C206C2083D
:10061A00120593FF700D3007057F001205D6AF3F14
:10062A00AE3E22B4255FC2D5C204120593FF24D080
:10063A00B40A00501A75F00A783C30D50508B6FF9E
:10064A000106C6A426F620D5047002D20380D92456
:10065A00CFB41A00EF5004C2E5D2040208C3D20193
:10066A0080C6D20080C0D20280BCD2D580BAD20560
:10067A0080B47F201205C52002077401B53C0040F2
:10068A00F112058AFF1205C50205FED208D20680BC
:10069A009512058AFB12058AFA12058AF94A4B70E5
:1006AA000679BA7A097BFF20022EE53C602A7E0091
:1006BA008E8275830012050760060EEE653D70F0A6
:1006CA00C2D5EBC0E0EAC0E0E9C0E0EE120923D0EF
:1006DA00E0F9D0E0FAD0E0FB1204EEFF60AAEBC02A
:1006EA00E0EAC0E0E9C0E01205C5D0E02401F9D093
:1006FA00E03400FAD0E0FBE53D0460DCD53DD9806A
:10070A0087D20280A212090660F7E53D7001041241
:10071A0001B4A93D600DE53D600914F53D1209AD2E
:10072A00EF60F3EA30E702F404C3995077EAF4255C
:10073A003D0430E701E404F53D800D12090660C16D
:10074A00EA053D253D1201B4EA783AF630E701E4BC
:10075A00253D04D53D0420050114120923E4C0E017
:10076A001209AD783AE6601320E70714F61205ADD0
:10077A00802204F6D0E014C0E07F001205ADE53D0A
:10078A0060071205A4153D800B3005031205A4D09D
:10079A00E00205FED0E00480C512090660A0E53D2E
:1007AA00041201B4783AEAF6E53D20050260010434
:0507BA002404120923D4
:1007BF0074FF04C0E01209AD1205ADE53D2005023E
:1007CF0060031205A4D0E0B53DE87F451205B77868
:1007DF003AE67F2B30E7047F2DF404C0E01205C505
:1007EF00D0E075F00A84C0F01205AED0E01205AE6D
:1007FF000205FE791080027908C206C2088008D26D
:10080F00D5790A8004790AC2D5E53D047002F53D19
:10081F00E4FAFDFEFF12058AFC7B08200113120586
:10082F008AFD7B1030000A12058AFE12058AFF7BB3
:10083F0020EC3382D592D55013C3E43000069FFFCE
:10084F00E49EFEE42001039DFDE49CFCE4CBF8C292
:10085F0001EC700CCFCECDCCE824F8F870F38017F4
:10086F00C3EF33FFEE33FEED33FDEC33FCEB33FB25
:10087F00994002FB0FD8E9EB300105F8D0E0C448EE
:10088F00B201C0E00AEC4D4E4F78207B0070C2EAF7
:10089F00B53D0040BCC0E0120925D0F0D0E02001EA
:1008AF0004C4C0E0C4B201C0F01205AED0F0D5F060
:1008BF00EB0205FE120564069B53080258066C4CAA
:1008CF0006684208064F080E44080E490681430881
:1008DF00145507454607A345070F4709DA50067019
:1008EF002D06742E06972B06782306952009C32A0A
:1008FF000630480000068FE53DB4FF03753D061234
:10090F00058AFC12058AFD12058AFE12058AFF78F8
:10091F00330201E3790AA2D5200314300509B91077
:10092F00020404B9080104A2D520060250010420D4
:10093F0002689202B53C005034C0E07F20300319AA
:10094F007F30A20272067205500F12097CC202C2DA
:10095F0006C205C2087F30800F300503E9C0E012E0
:10096F0005C5300503D0E0F9D0E0B53CCC30051714
:10097F007F30B9100C1205C57F583004077F78807F
:10098F0003B908031205C53002057F2D0205C57F87
:10099F00202008F87F2B2006F322920280CF7F00C1
:1009AF00B4070050052433F8E6FF22286E756C6CEF
:1009BF002900D20112058A3001F8C201783C30D5E6
:1009CF000108F60206302D5043495812058A2403B8
:1009DF00B405004001E49009D5931205B6743A129C
:0A09EF0005B6D203753C04020802AD
:10016A00E9D2E7C933E833F892D5EDD2E7CD33ECDB
:07017A0033FC5002B2D52254
:10018100EC30E7100FBF000C0EBE00080DBD0004DF
:100191000BEB6014A2D5EB13FCED92E7FD2274FF8B
:1001A100FCFDFEFF22E480F8A2D574FF13FC7D80E4
:0301B100E480EFF8
:1001B400F920E72824F950037907E4F42402FB1812
:1001C400DBFDE624FB5014E9600DE4F618E604F6C2
:0F01D400B40A08E4F6D9F57401F60A22C2D5225E
:1001E300ED33EC3392D5FA602AB4FF33EDC2E77BEB
:1001F300FF60067A027908E4227A02791120D50495
:100203007A02790C224E614E002B494E46002D494D
:100213004E4600E47A08F608DAFC7B00740722E80D
:10022300C0E0ECC0E0EDC0E0EEC0E0EFC0E0EA7596
:10023300F010A4CAABF075F04DA42BFBE435F0FC31
:10024300EA2410FAEB34C5FBEC34D9FCEDC2E7FF2A
:1002530075F056A4F42411C5F0F434C58FF0A42A24
:10026300E5F03BE43CF620E7141204AED0E0FFD007
:10027300E0FED0E0FDD0E0FC1203E18014F40412B0
:1002830004AED0E0FFD0E0FED0E0FDD0E0FC1200F1
:1002930026D0E0F8E6FAEDD2E7CD33EC332482FB47
:1002A300E4C3CF33CFCE33CECD33CD33DBF37B07B4
:1002B30075F00A846004F6081B0AE5F0F6088FF06F
:1002C300740AA4FFACF08EF0740AA42CFEACF050B8
:1002D300010C8DF0740AA42CFDE435F0F608DBDE86
:0302E3007407227B
:1002E60002019FE86480F8E933E83360110460F0A6
:1002F600ED33EC337009E8FCE9FDEAFEEBFF22047E
:1003060060DED3EB9FEA9EE99DE8C2E78CF0C2F778
:1003160095F0400CE8CCF8E9CDF9EACEFAEBCFFB44
:1003260012016A85D0F05804700320D5B3E8047032
:10033600075002B2D50201A992D5EC0460F7E4CCCD
:10034600C0E0C398F8603B94186008400DD0E0FB0D
:10035600020181E4FBFAC9FC8028E830E406E4C91E
:10036600FBE4CAFCE830E305E4C9CACBFCE8540761
:100376006010F8C3E913F9EA13FAEB13FBEC13FC6C
:10038600D8F130F52FC3E49CFCEF9BFFEE9AFEED0F
:1003960099FDD0E0FBEF4E4D4C701222DB030201BB
:1003A600A6EC2CFCEF33FFEE33FEED33FDED30E72C
:1003B600EB020181EF2BFFEE3AFEED39FDD0E0FBBB
:1003C60050130BBB00030201A9ED13FDEE13FEEF64
:0803D60013FFEC13FC0201818E
:1003DE000201A9EC5D046005E85904700302019F57
:1003EE0012016A580460F6EC4860F2EC7004FDFEEF
:1003FE00FF22C860DB2481C85009C39860025006F2
:10040E000201A69850CAF582E9294B4A7005AB82C3
:10041E0002019575F0007C1A7880C3EF9BEE9AED81
:10042E0099400DC3EF9BFFEE9AFEED99FDE842F069
:10043E00DC23ACF0D0E0FFD0E0FED0E0FDAB8220BC
:10044E00E7101BEB60BAEC2CFCEF33FFEE33FEED46
:10045E0033FD020181E803F830E705C0F075F000C6
:10046E00EF2FFFEE33FEED33FD40B830E7C280AA2A
:10047E003F8000004120000042C80000447A000086
:10048E00461C400047C35000497424004B18968008
:10049E004CBEBC205A0E1BCA6753C21C749DC5AEFF
:1004AE00FB60065407601C23231204DCEB543860F7
:1004BE00091204C81204D7120026ECF8EDF9EEFA70
:1004CE00EFCB22EB1204D780F1543803241C900496
:1004DE007EFE93FC0EEE93FD0EEE930ECE93FF2258
:03000000020E8865
:0C0E8800787FE4F6D8FD758158020ECF8B
:1004EE00BB010689828A83E0225002E722BBFE020C
:0904FE00E32289828A83E493223F
:10050700BB010CE58229F582E5833AF583E02250A9
:1005170006E92582F8E622BBFE06E92582F8E222F3
:0D052700E58229F582E5833AF583E493220D
:10053400BB010689828A83F0225002F722BBFE01A6
:02054400F322A0
:0E054600C3E49FFFE49EFEE49DFDE49CFC22C6
:10055400FAE6FB0808E6F925F0F618E6CA3AF622A8
:10056400D083D082F8E4937012740193700DA3A326
:1005740093F8740193F5828883E47374029368603A
:06058400EFA3A3A380DF3A
:1013D100EFB40A07740D1213DC740A309811A8993E
:1013E100B8130CC2983098FDA899C298B811F6307C
:0713F10099FDC299F5992254
:100E9400020C26E493A3F8E493A34003F68001F242
:100EA40008DFF48029E493A3F85407240CC8C3335F
:100EB400C4540F4420C8834004F456800146F6DF2E
:100EC400E4800B0102040810204080901383E47E28
:100ED400019360BCA3FF543F30E509541FFEE49323
:100EE400A360010ECF54C025E060A840B8E493A3EA
:100EF400FAE493A3F8E493A3C8C582C8CAC583CA15
:100F0400F0A3C8C582C8CAC583CADFE9DEE780BECC
:0113A9000043
:00000001FF
