:100C07007580FFC2A4D2A5C2A600D2A6E580332272
:100BE500120C0740FBC2A4C2A5D2A68F8000C2A6E4
:010BF50022DD
:100BF600120C0740FBD2A4C2A5D2A68F8000C2A6C3
:010C060022CB
:0A0C36007F01120BE57F05020BD0D1
:100B3F008F368D378B388A39893AAB38AA39A93A2B
:100B4F001204E6FB6016AD37AF36120BB8740125F1
:0D0B5F003AF53AE43539F539053680DE22E5
:100BB800AE07AC03ED7005EE24808003EE24C0FF81
:080BC800120BE5AF04020BF66D
:100AD5007F38120BE57F05120BD07F38120BE57FAF
:100AE50005120BD07F38120BE57F05120BD07F382E
:100AF500120BE57F08120BE57F01120BE57F06124D
:0B0B05000BE51F120BD07F0C020BE56C
:03000300DFFE22FB
:100BD000AE07AF061EEF600C7FF51200037FF51223
:050BE000000380EE227D
:100B10007777772E646F666C79652E6E6574006FDB
:100B2000766572666C6F77203E3635354B487A00B5
:0F0B3000465245513A2530382E306620487A001B
:0F0C2700438905E4F58CF58AD2AFD2A9D28C228D
:100C1700438910758DD8758BF0D2AFD2ABD28E22A7
:100A4000120C27120C17120AD57F0A120BD0120CA7
:100A5000367BFF7A0B7910E4FDFF120B3F30090F54
:100A6000C2097BFF7A0B791F7D01E4FF120B3F3037
:100A70000AEBAF8CEFFEAD8A7C00E42DFFEC3EFE6E
:100A8000E48F258E24F523F522AD23AC227B0AFAD0
:100A9000F9F812053E8F258E248D238C227539FF9F
:100AA000753A0B753B30E412001E8F3F8E3E8D3D34
:100AB0008C3C7B007A00792612062D7B007A007927
:100AC000267D01E4FF120B3FD28CD28EE4F58CF52B
:050AD0008AC20A8088C3
:03000B00020C40A4
:090C4000758C00758A00D209329E
:03001B00020B9342
:040B9300C0E0C0D02E
:100B9700758DD8758BF00508E508B40A0F75080040
:0C0BA700C28CC28ED20A758DD8758BF0FE
:050BB300D0D0D0E032BB
:10001E0075F020800E75F010800575F0087D007E5D
:10002E00007F003392D530D50312058DEC3340108E
:10003E00EF33FFEE33FEED33FDEC33FCD5F0ED2266
:0E004E00E5F0247EA2D513CC92E7CDCEFF22A2
:1005D100E54D2439F8E6054D2278363007027839A1
:1005E100E475F00112059B0204E62000EB7F2ED298
:1005F100008018EF540F2490D43440D4FF30040B02
:10060100EF24BFB41A0050032461FFE54E600215C8
:100611004E0551E5517002055030070D7836E475ED
:10062100F00112059BEF02052C020B6C7403D2073B
:100631008003E4C207F54D8B368A378938E4F54EDD
:10064100F550F551E54E60077F2012060C80F575D7
:100651004FFFC201C200C202C203C205C206C208E4
:100661001205DAFF700D3007057F0012061DAF512C
:10067100AE5022B4255FC2D5C2041205DAFF24D0E0
:10068100B40A00501A75F00A784E30D50508B6FF45
:100691000106C6A426F620D5047002D20380D9240F
:1006A100CFB41A00EF5004C2E5D20402090AD20104
:1006B10080C6D20080C0D20280BCD2D580BAD20519
:1006C10080B47F2012060C2002077401B54E004051
:1006D100F11205D1FF12060C020645D208D206809E
:1006E100951205D1FB1205D1FA1205D1F94A4B70C9
:1006F1000679017A0A7BFF20022EE54E602A7E00F0
:100701008E827583001204FF60060EEE654F70F055
:10071100C2D5EBC0E0EAC0E0E9C0E0EE12096AD060
:10072100E0F9D0E0FAD0E0FB1204E6FF60AAEBC0EA
:10073100E0EAC0E0E9C0E012060CD0E02401F9D003
:10074100E03400FAD0E0FBE54F0460DCD54FD980FE
:1007510087D20280A212094D60F7E54F70010412A1
:10076100005CA94F600DE54F600914F54F1209F4C3
:10077100EF60F3EA30E702F404C3995077EAF42515
:100781004F0430E701E404F54F800D12094D60C1BB
:10079100EA054F254F12005CEA784CF630E701E498
:1007A100254F04D54F042005011412096AE4C0E065
:1007B1001209F4784CE6601320E70714F61205F4E9
:1007C100802204F6D0E014C0E07F001205F4E54F6A
:1007D10060071205EB154F800B3005031205EBD0B6
:1007E100E0020645D0E00480C512094D60A0E54F46
:1007F1000412005C784CEAF6E54F20050260010422
:05080100240412096A45
:1008060074FF04C0E01209F41205F4E54F20050256
:1008160060031205EBD0E0B54FE87F451205FE7880
:100826004CE67F2B30E7047F2DF404C0E012060C63
:10083600D0E075F00A84C0F01205F5D0E01205F597
:10084600020645791080027908C206C2088008D2DD
:10085600D5790A8004790AC2D5E54F047002F54FAE
:10086600E4FAFDFEFF1205D1FC7B082001131205F8
:10087600D1FD7B1030000A1205D1FE1205D1FF7B97
:1008860020EC3382D592D55013C3E43000069FFF87
:10089600E49EFEE42001039DFDE49CFCE4CBF8C24B
:1008A60001EC700CCFCECDCCE824F8F870F38017AD
:1008B600C3EF33FFEE33FEED33FDEC33FCEB33FBDE
:1008C600994002FB0FD8E9EB300105F8D0E0C448A7
:1008D600B201C0E00AEC4D4E4F78207B0070C2EAB0
:1008E600B54F0040BCC0E012096CD0F0D0E020014A
:1008F60004C4C0E0C4B201C0F01205F5D0F0D5F0D2
:10090600EB0206451205AB06E25308495806B34CFE
:1009160006AF42084D4F08554408554906C84308D6
:100926005B55078C4607EA450756470A215006B726
:100936002D06BB2E06DE2B06BF2306DC200A0A2A5E
:10094600067748000006D6E54FB4FF03754F06123A
:1009560005D1FC1205D1FD1205D1FE1205D1FF7895
:100966004502008B790AA2D5200314300509B91077
:10097600020404B9080104A2D5200602500104208D
:1009860002689202B54E005034C0E07F2030031951
:100996007F30A20272067205500F1209C3C202C24C
:1009A60006C205C2087F30800F300503E9C0E01299
:1009B600060C300503D0E0F9D0E0B54ECC30051773
:1009C6007F30B9100C12060C7F583004077F7880F0
:1009D60003B9080312060C3002057F2D02060C7FB0
:1009E600202008F87F2B2006F322920280CF7F007A
:1009F600B4070050052445F8E6FF22286E756C6C96
:100A06002900D2011205D13001F8C201784E30D545
:100A16000108F60206772D504349581205D12403E2
:100A2600B405004001E4900A1C931205FD743A12C5
:0A0A360005FDD203754E04020849C5
:10005C00F920E72824F950037907E4F42402FB186B
:10006C00DBFDE624FB5014E9600DE4F618E604F61B
:0F007C00B40A08E4F6D9F57401F60A22C2D522B7
:10008B00ED33EC3392D5FA602AB4FF33EDC2E77B44
:10009B00FF60067A0079B0E4227A0079B920D504A2
:1000AB007A0079B4224E614E002B494E46002D4901
:1000BB004E4600E47A08F608DAFC7B00740722E867
:1000CB00C0E0ECC0E0EDC0E0EEC0E0EFC0E0EA75F0
:1000DB00F010A4CAABF075F04DA42BFBE435F0FC8B
:1000EB00EA2410FAEB34C5FBEC34D9FCEDC2E7FF84
:1000FB0075F056A4F42411C5F0F434C58FF0A42A7E
:10010B00E5F03BE43CF620E71412045CD0E0FFD0B2
:10011B00E0FED0E0FDD0E0FC12038F8014F404125B
:10012B00045CD0E0FFD0E0FED0E0FDD0E0FC12029A
:10013B0086D0E0F8E6FAEDD2E7CD33EC332482FB40
:10014B00E4C3CF33CFCE33CECD33CD33DBF37B070D
:10015B0075F00A846004F6081B0AE5F0F6088FF0C8
:10016B00740AA4FFACF08EF0740AA42CFEACF05011
:10017B00010C8DF0740AA42CFDE435F0F608DBDEDF
:03018B00740722D4
:10018E000204D1E86480F8E933E83360110460F0CA
:10019E00ED33EC337009E8FCE9FDEAFEEBFF2204D7
:1001AE0060DED3EB9FEA9EE99DE8C2E78CF0C2F7D2
:1001BE0095F0400CE8CCF8E9CDF9EACEFAEBCFFB9E
:1001CE0012049C85D0F05804700320D5B3E8047057
:1001DE00075002B2D50204DB92D5EC0460F7E4CCF2
:1001EE00C0E0C398F8603B94186008400DD0E0FB67
:1001FE000204B3E4FBFAC9FC8028E830E406E4C943
:10020E00FBE4CAFCE830E305E4C9CACBFCE85407BA
:10021E006010F8C3E913F9EA13FAEB13FBEC13FCC5
:10022E00D8F130F52FC3E49CFCEF9BFFEE9AFEED68
:10023E0099FDD0E0FBEF4E4D4C701222DB03020411
:10024E00D8EC2CFCEF33FFEE33FEED33FDED30E753
:10025E00EB0204B3EF2BFFEE3AFEED39FDD0E0FBDF
:10026E0050130BBB00030204DBED13FDEE13FEEF88
:08027E0013FFEC13FC0204B3B2
:10028600EC4D6011E8497017ED33EC3304600DE472
:10029600FCFFFEFD22E933E8330470F80204D112B4
:1002A600049C58046009E4CC2481500628500902B5
:1002B60004DB2840030204D8C0E0EB4A7044B9804E
:1002C60006D0E0FB0204C7EF4E701CBD8008EBFFB2
:1002D600EAFEE9FD80EBE98DF0A4FEE5F002036F8E
:1002E600E9CDF9EAFEEBFFEF89F0A4FCE5F0CE8953
:1002F600F0A42EFFE435F0CD89F0A42DFEE435F010
:100306008067EF4E7005BD80D780C3EF8BF0A4AC3D
:10031600F0EE8BF0A42CFCE435F0F8EF8AF0A42C78
:10032600E5F038FCE433CB8DF0A42CFCE5F03BF88B
:10033600EE8AF0A42CFCE5F038F8E433CF89F0A47B
:100346002CFCE5F038CF3400CE89F0A42FFFE5F081
:100356003EFEE433C98DF0A42EFEE5F039CD8AF0D9
:10036600A42FFFE5F03EFEE43DFD33D0E0FB500751
:100376000BBB000F0204DBEC2CFCEF33FFEE33FE6D
:06038600ED33FD0204B39B
:10038C000204DBEC5D046005E8590470030204D13F
:10039C0012049C580460F6EC4860F2EC7004FDFE0C
:1003AC00FF22C860DB2481C85009C3986002500644
:1003BC000204D89850CAF582E9294B4A7005AB82E1
:1003CC000204C775F0007C1A7880C3EF9BEE9AED9F
:1003DC0099400DC3EF9BFFEE9AFEED99FDE842F0BC
:1003EC00DC23ACF0D0E0FFD0E0FED0E0FDAB82200F
:1003FC00E7101BEB60BAEC2CFCEF33FFEE33FEED99
:10040C0033FD0204B3E803F830E705C0F075F000E3
:10041C00EF2FFFEE33FEED33FD40B830E7C280AA7C
:10042C003F8000004120000042C80000447A0000D8
:10043C00461C400047C35000497424004B1896805A
:10044C004CBEBC205A0E1BCA6753C21C749DC5AE51
:10045C00FB60065407601C232312048AEB5438609B
:10046C0009120476120485120286ECF8EDF9EEFA04
:10047C00EFCB22EB12048580F1543803241C90043A
:10048C002CFE93FC0EEE93FD0EEE930ECE93FF22FC
:10049C00E9D2E7C933E833F892D5EDD2E7CD33ECA6
:0704AC0033FC5002B2D5221F
:1004B300EC30E7100FBF000C0EBE00080DBD0004AA
:1004C3000BEB6014A2D5EB13FCED92E7FD2274FF56
:1004D300FCFDFEFF22E480F8A2D574FF13FC7D80AF
:0304E300E480EFC3
:0300000002000EED
:0C000E00787FE4F6D8FD758151020A40AD
:1004E600BB010689828A83E0225002E722BBFE0214
:0904F600E32289828A83E4932247
:1004FF00BB010CE58229F582E5833AF583E02250B2
:10050F0006E92582F8E622BBFE06E92582F8E222FB
:0D051F00E58229F582E5833AF583E4932215
:10052C00BB010689828A83F0225002F722BBFE01AE
:02053C00F322A8
:10053E00E88FF0A4CC8BF0A42CFCE98EF0A42CFC5C
:10054E008AF0EDA42CFCEA8EF0A4CDA8F08BF0A4DA
:10055E002DCC3825F0FDE98FF0A42CCD35F0FCEB39
:10056E008EF0A4FEA9F0EB8FF0A4CFC5F02ECD39FE
:0F057E00FEE43CFCEAA42DCE35F0FDE43CFC226B
:0E058D00C3E49FFFE49EFEE49DFDE49CFC227F
:10059B00FAE6FB0808E6F925F0F618E6CA3AF62261
:1005AB00D083D082F8E4937012740193700DA3A3DF
:1005BB0093F8740193F5828883E4737402936860F3
:0605CB00EFA3A3A380DFF3
:100B6C00EFB40A07740D120B77740A309811A89918
:100B7C00B8130CC2983098FDA899C298B811F630E9
:070B8C0099FDC299F59922C1
:00000001FF
