:10000300554152542074657374A3ACBCBCCAF5C289
:10001300DBCCB3A3BA7777772E646F666C79652EE2
:0F0023006E6574207468616E6B20796F752100B3
:0E008B00759850438920758DFDD28ED2AF221C
:10004B0012008B7BFF7A0079031200787FF012008D
:08005B00637FF012006380EBEB
:0800A5008F993099FDC29922E8
:10007800120032FF600C1200A5740129F9E43AFA63
:0300880080EE22E5
:0300AD00DFFE2251
:10006300AE07AF061EEF600C7FF51200AD7FF512F1
:0500730000AD80EE224B
:0300000002009962
:0C009900787FE4F6D8FD75810702004B6B
:10003200BB010689828A83E0225002E722BBFE02CC
:09004200E32289828A83E49322FF
:00000001FF
