:1000A5003F065B4F666D7D077F6FFEFDFBF7EFDF5C
:0200B500BF7F0B
:100003000515E51570020514641445147059F514AB
:10001300F515E513451270097F087808E4F608DF43
:10002300FCE5139000A593FFAE1174072EF8A60705
:1000330074062EF8E4F6C374089513FFE49512FED4
:10004300EFB5111BEEB51017E4F510F5110513E527
:100053001370020512640845127004F512F51305B6
:1000630011E511700205107D08E4FF120073809002
:0A00C300EF1F70011E144E70F722AB
:02007300AC07D8
:10007500E4FBEBC39D5028E4F580D2A2C2A2EB2C91
:100085009000AF93F580D2A3C2A374082BF8E6F5D0
:0F00950080D2A2C2A27FC87E001200C30B80D30C
:0100A4002239
:030000000200B744
:0C00B700787FE4F6D8FD75811502000387
:00000001FF
