:10009B003F065B4F666D7D077F6FFEFDFBF7EFDF66
:0200AB00BF7F15
:10000300E4F510D2B320B3147F0A12008620B30C98
:1000130030B3FDE510C394635002051020B4147F80
:100023000A12008620B40C30B4FDE510D3940040CE
:10003300021510E51075F00A8490009B93F508E50E
:100043001075F00A84E5F093F5097D08E4FF1200CA
:030053005680B222
:0300B900DFFE2245
:10008600AE07AF061EEF600C7FF51200B97FF512C2
:0500960000B980EE221C
:02005600AC07F5
:10005800E4FBEBC39D5026E4F580D2A0C2A0EB2CB4
:100068009000A593F580D2A3C2A374082BF8E6F5F7
:0D00780080D2A0C2A07F021200860B80D5AE
:010085002258
:030000000200AD4E
:0C00AD00787FE4F6D8FD75811002000396
:00000001FF
