:10000300750800750964E4F50AF50B20A0287F0341
:100013007E001200AA20A01E74642509F509E435A8
:1000230008F508E509B4580BE508B402067508009D
:1000330075096430A0FD7590FF7F607EEA1200AA07
:10004300750A00750B01C3E50B9509E50A95085080
:1000530017E4F590AF0BAE0A1200AA12009C050B31
:10006300E50B70E2050A80DEE4F590E50924FFF56F
:100073000BE50834FFF50AD3E50B9400E50A940079
:100083004089E4F590AF0BAE0A1200AA12009CE57A
:090093000B150B70E2150A80DE6A
:0E009C007590FFC3E509950BFFE508950AFE78
:0A00AA00EF1F70011E144E70F722C4
:030000000200B447
:0C00B400787FE4F6D8FD75810B02000394
:00000001FF
