:03049800DFFE2262
:10045E00AE07AF061EEF600C7FF51204987FF51203
:05046E00049880EE225D
:100188002020D6C7C4DCB7E7C9C8002020C4A3CA4A
:10019800BDA3BAB5B5CEBBB7E7002020B5B5CEBB79
:1001A800A3BA002020CEC2B6C8A3BA323500202098
:1001B80032303133A1A233A1A23239002020362EA9
:1001C800C9E8D6C336002020372EC9E8D6C3370081
:1001D8002020382EC9E8D6C338002020392EC9E897
:1001E800D6C33900202031302EC9E8D6C3313000BB
:1001F8000000002000300038003C003E003F003F77
:10020800803FC03F803F003E003C00380030002067
:0102180000E5
:1004470014090188019301A201AB01B601C401CED1
:0604570001D801E201ECF6
:10047300C2A4D2A5D2A67580FFE58020E7FBC2A661
:010483002256
:10043000120473C2A4C2A5D2A68F807F05120498AD
:07044000C2A67F050204982B
:09041000851F82851E83E493FF21
:10041900120473D2A4C2A5D2A68F807F05120498B4
:07042900C2A67F0502049842
:10034A007F2812045ED2A27F0112045EC2A37F013B
:10035A0012045ED2A37F0A12045E7F301204307F39
:10036A00321204987F301204307F141204987F0CE2
:10037A001204307F321204987F011204307F0F1268
:0C038A00045E7F061204307F32020498EB
:1002A5007F301204307F40120430E4F524F525E553
:1002B5002525E0FFE52433FE74F92FF58274013E10
:1002C500F583E493FF120419E52525E0FFE52433C2
:1002D500FE74FA2FF58274013EF583E493FF120450
:1002E500190525E52570020524C39410E5246480CD
:0402F500948040BBF6
:0102F90022E2
:1003DB008F25ED24FE601014601314601624037037
:1003EB001AE52524808010E5252490800AE5252434
:1003FB00888004E5252498FF120430E4FF120419C9
:05040B00E4FF020419EA
:1002FA008F258A268B27ED24FE6010146013146064
:10030A00162403701AE52524808010E525249080A0
:10031A000AE52524888004E5252498FF12043085FF
:10032A002782852683E493FFD3940040121204198E
:10033A000527E527700205267F3212049880E022FD
:0A0484007F011204307F0F02045EB6
:0400F3008E1E8F1FAF
:1000F700E4F520F521E5212480FF1204307F8012EA
:100107000430E4F522F523120410051FE51F7002E1
:10011700051E0523E52370020522C39410E522641A
:1001270080948040E20521E52170020520C39420D8
:10013700E5206480948040BDE4F520F521E5212485
:1001470080FF1204307F88120430E4F522F5231271
:100157000410051FE51F7002051E0523E523700225
:100167000522C39410E5226480948040E20521E5CE
:100177002170020520C39420E5206480948040BD4F
:010187002255
:0A048E007F361204307F1402049838
:1000030012048475240AE51D1313543FFD75F0048F
:10001300A4FFE524FBC3EF9B7480F865F098500FB1
:10002300ED75F008A42409F8E6FA08E6FB80047AE3
:10003300017BF87D01E4FF1202FAE51D1313543F1F
:10004300FD75F004A42401FFE435F0FEE524FBC3B1
:10005300EF9B7480F86E98500FED75F008A4240B95
:10006300F8E6FA08E6FB80047A017BF87D02E4FFF8
:100073001202FAE51D1313543FFD75F004A4240284
:10008300FFE435F0FEE524FBC3EF9B7480F86E9824
:10009300500FED75F008A4240DF8E6FA08E6FB808E
:1000A300047A017BF87D03E4FF1202FAE51D1313C2
:1000B300543FFD75F004A42403FFE435F0FEE5246A
:1000C300FBC3EF9B7480F86E98500FED75F008A496
:1000D300240FF8E6FA08E6FB80047A017BF87D0436
:1000E300E4FF1202FAE51D540304FDE4FF0203DBFF
:1003960012034A1202A5120003E51D650860061243
:1003A6000003851D0820A0147F0A12045E20A00CFD
:1003B60030A0FDE51DC394095002051D20A1DA7F7A
:1003C6000A12045E20A1D230A1FDE51DD39400409F
:0503D600C8151D80C4E4
:03000000020219E0
:0C021900787FE4F6D8FD758127020260B2
:10022500020396E493A3F8E493A34003F68001F256
:1002350008DFF48029E493A3F85407240CC8C333DA
:10024500C4540F4420C8834004F456800146F6DFA9
:10025500E4800B0102040810204080900447E47EEE
:10026500019360BCA3FF543F30E509541FFEE4939E
:10027500A360010ECF54C025E060A840B8E493A365
:10028500FAE493A3F8E493A3C8C582C8CAC583CA90
:10029500F0A3C8C582C8CAC583CADFE9DEE780BE48
:01045D00009E
:00000001FF
