:10031700C201D2937F05120007C2937FC81200075C
:100327007FC8120007D2937F32120007A29392016F
:070337007F19120007A2016B
:01033E00229C
:1002EE00E4F518F519751808C293E519C313F51935
:1002FE00D2933093034319807F191200071518E526
:08030E0018D3940050E2AF196E
:0103160022C4
:0202C4008F1891
:1002C600E4F519751908C293E5181392937F19126C
:1002D6000007D293E518C313F5181519E519D39439
:0802E6000050E37F190200073C
:10025D00E4F517FFFEFDFC1203177FCC1202C47FDD
:10026D00441202C47F0A12033F1203177FCC1202FD
:10027D00C47FBE1202C41202EE8F171202EEEF7F80
:0B028D0000FEEF2517FDE43EFEAF056C
:010298002243
:03000700DFFE22F7
:10033F00AE07AF061EEF600C7FF51200077FF512B8
:05034F00000780EE2212
:100354003F065B4F666D7D077F6FFEFDFBF7EFDFAA
:02036400BF7F59
:03000300010800F1
:10000E001203663000FDC20012025DAD07AC06ECB5
:10001E0030E710750B406305FF6304FF0DBD000153
:10002E000C8003E4F50BECC4F854F0C868F513ED3E
:10003E00C4540F48F514751500ED540FF516AE1592
:10004E00FF7C007D061201B17D0A1201C38E158F51
:10005E0016D3E514943CE513940040057512768092
:10006E0003E4F512AE13AF147C007D641201C3EFEE
:10007E004E7004F50C800E74542FF58274033EF509
:10008E0083E493F50CAE13AF147C007D641201C3B0
:10009E00EF4E701FAE13AF14FC7D641201C37E00D1
:1000AE007F0ACFCDCFCECCCE1201C3EF4E7004F56A
:1000BE000D8026AE13AF147C007D641201C37E004A
:1000CE007F0ACFCDCFCECCCE1201C374542FF58282
:1000DE0074033EF583E493F50DAE13AF147C007DEF
:1000EE00641201C37E007F0ACFCDCFCECCCE1201DB
:1000FE00C374542DF58274033CF583E4934480F568
:10010E000E74542516F58274033515F583E493F5B4
:07011E000F751139020011F9
:10029900E4F580D2A2C2A2E5082F90035E93F5800F
:1002A900D2A3C2A3740B2508F8E6F580D2A2C2A294
:0A02B9000508E508B50503E4F508A3
:0102C3002218
:0A036600438901D2AFD2A9D28C2244
:03000B00020218D6
:10021800C0E0C083C082C0D075D000C000C005C097
:0102280007CE
:10022900758CF8758A307D08E4FF120299050AE594
:100239000A70020509B42C0DE509B4010875090015
:05024900750A00D2005F
:0F024E00D007D005D000D0D0D082D083D0E032FE
:03000000020125D5
:0C012500787FE4F6D8FD75812002016CA3
:1001B100EF8DF0A4A8F0CF8CF0A428CE8DF0A42E62
:0201C100FE221C
:1001C300BC000BBE0029EF8DF084FFADF022E4CC20
:1001D300F875F008EF2FFFEE33FEEC33FCEE9DECE9
:1001E300984005FCEE9DFE0FD5F0E9E4CEFD22ED2F
:1001F300F8F5F0EE8420D21CFEADF075F008EF2F79
:10020300FFED33FD4007985006D5F0F222C398FD69
:050213000FD5F0EA2206
:1001310002000EE493A3F8E493A34003F68001F2D6
:1001410008DFF48029E493A3F85407240CC8C333CF
:10015100C4540F4420C8834004F456800146F6DF9E
:10016100E4800B0102040810204080900003E47E2B
:10017100019360BCA3FF543F30E509541FFEE49393
:10018100A360010ECF54C025E060A840B8E493A35A
:10019100FAE493A3F8E493A3C8C582C8CAC583CA85
:1001A100F0A3C8C582C8CAC583CADFE9DEE780BE3D
:0100060000F9
:00000001FF
