:1001F1003F065B4F666D7D077F6FFEFDFBF7EFDF0F
:02020100BF7FBD
:03000300011200E7
:1001280012020312000EEF60FAE508C39408502E7D
:10013800EF9001F193FF740A2508F8A607E4F50982
:10014800E509D395085017740A2509F8E6FFC37422
:1001580007950825092413F8A607050980E205086C
:10016800E508B409BEE4F508F509E509C3940850A3
:0C017800B274132509F8E4F6050980EEC6
:03000700DFFE22F7
:1001DC00AE07AF061EEF600C7FF51200077FF5121D
:0501EC00000780EE2277
:1001B100E4F580D2A2C2A2E5122F9001FB93F58053
:1001C100D2A3C2A374132512F8E6F580D2A2C2A26B
:0A01D1000512E512B50503E4F5126E
:0101DB002201
:0A020300438901D2AFD2A9D28C22A8
:03000B000201846B
:10018400C0E0C083C082C0D075D000C000C005C02C
:1001940007758CF8758A307D08E4FF1201B1D00729
:0D01A400D005D000D0D0D082D083D0E03282
:10000E0020B0117F0A1201DC30B00302009B30B029
:10001E00FD7F012220B10E7F0A1201DC20B16E306D
:10002E00B1FD7F022220B20E7F0A1201DC20B25DEA
:10003E0030B2FD7F032220B30E7F0A1201DC20B303
:10004E004C30B3FD7F042220B40E7F0A1201DC2057
:10005E00B43B30B4FD7F052220B50E7F0A1201DCC1
:10006E0020B52A30B5FD7F062220B60E7F0A12017A
:10007E00DC20B61930B6FD7F072220B70E7F0A129C
:0E008E0001DC20B70830B7FD7F08227F00227A
:0300000002009C5F
:0C009C00787FE4F6D8FD75811A0200E3BD
:1000A800020128E493A3F8E493A34003F68001F245
:1000B80008DFF48029E493A3F85407240CC8C33359
:1000C800C4540F4420C8834004F456800146F6DF28
:1000D800E4800B0102040810204080900003E47EB5
:1000E800019360BCA3FF543F30E509541FFEE4931D
:1000F800A360010ECF54C025E060A840B8E493A3E4
:10010800FAE493A3F8E493A3C8C582C8CAC583CA0E
:10011800F0A3C8C582C8CAC583CADFE9DEE780BEC6
:0100060000F9
:00000001FF
