:1001E7007580FFC2A4D2A5C2A600D2A6E58033229D
:1001C5001201E740FBC2A4C2A5D2A68F8000C2A639
:0101D5002207
:1001D6001201E740FBD2A4C2A5D2A68F8000C2A618
:0101E60022F6
:0A0210007F011201C57F050201B055
:10017300AE07ED7005EE24808003EE24C0FF12016C
:10018300C5120197FF600C1201D6740129F9E43AF4
:04019300FA80EE22DE
:1000A7007F381201C57F051201B07F381201C57F65
:1000B700051201B07F381201C57F051201B07F38E4
:1000C7001201C57F081201C57F011201C57F061203
:0B00D70001C51F1201B07F0C0201C523
:03000600DFFE22F8
:1001B000AE07AF061EEF600C7FF51200067FF5124A
:0501C000000680EE22A4
:10014D007777772E686F6E676D65692E6E657400B3
:10015D00436F64653A0030313233343536373839D0
:06016D00414243444546F7
:03000B00020221CD
:0302210005223281
:0300030002006692
:09006600C0E0C0D075D000C0005C
:10006F00300029E522C3943F500AE522C394214072
:10007F000375210074372521F8A62275220005216A
:10008F00E521B4210CD2017521008005752200D223
:01009F000060
:0700A000D000D0D0D0E03207
:0D01F700758902E4F58CF58AD2A9D28C221C
:07021A00D288D2A8D2AF2266
:10000E00E533C4540F90016393F523E533540F93F6
:10001E00F52475252DE534C4540F93F526E5345497
:10002E000F93F52775282DE535C4540F93F529E563
:10003E0035540F93F52A752B2DE536C4540F93F5D1
:10004E002CE536540F93F52D7B007A0079237D0134
:08005E007F05120173C20222AA
:10011C007E01E4FD7C0174372EF8E6D3940740038E
:10012C00430780ECC394085004EFC313FF0E0CBCC0
:10013C0009E474332DF8A607E4FF0DBD04D6D202F2
:01014C002290
:1000E20012021A1201F71200A77F141201B01202B3
:1000F200107BFF7A01794DE4FDFF1201737BFF7AD9
:1001020001795D7D01E4FF12017330010512011CCA
:0A011200C2013002F512000E80F069
:03000000020204F5
:0C020400787FE4F6D8FD7581570200E217
:10019700BB010689828A83E0225002E722BBFE0266
:0901A700E32289828A83E4932299
:00000001FF
