:10005C001200893002FD12000E300005438008802A
:10006C000353800130010543800180E753800880F1
:01007C00E2A1
:0A008900438901D2AFD2A9D28C2224
:03000B000200935D
:09009300758C15758AA0B20232C9
:03000300DFFE22FB
:10000E00C292C293E4FEFDD2937F9612000320B2F9
:10001E00010EC2937F961200030DBD0AEAEED39431
:10002E00064004D2018002C201E4FEFDD2927F9608
:10003E0012000320B2010EC2927F961200030DBD74
:0D004E000AEAEED394064003D20022C2005D
:01005B002282
:0300000002007D7E
:0C007D00787FE4F6D8FD75812002005C5D
:00000001FF
