:100092003F065B4F666D7D077F6FFEFDFBF7EFDF6F
:0200A200BF7F1E
:10000300E4F510D2B320B3147F0A12007D20B30CA1
:1000130030B3FDE510C394095002051020B4147FDA
:100023000A12007D20B40C30B4FDE510D3940040D7
:10003300021510E51075F00A84E5F090009293F52F
:0A004300087D01E4FF12004D80BBB0
:0300B000DFFE224E
:10007D00AE07AF061EEF600C7FF51200B07FF512D4
:05008D0000B080EE222E
:02004D00AC07FE
:10004F00E4FBEBC39D5026E4F580D2A0C2A0EB2CBD
:10005F0090009C93F580D2A3C2A374082BF8E6F509
:0D006F0080D2A0C2A07F0212007D0B80D5C0
:01007C002261
:030000000200A457
:0C00A400787FE4F6D8FD7581100200039F
:00000001FF
