:1000AE003F065B4F666D7D077F6FFEFDFBF7EFDF53
:0200BE00BF7F02
:100003000515E5157002051464144514705FF514A5
:10001300F515E513451270097F087808E4F608DF43
:10002300FCE5139000AE93FFAE11C374089E240841
:10003300F8A607C374099E2408F8E4F6C374089568
:1000430013FFE49512FEEFB5111BEEB51017E4F59F
:1000530010F5110513E513700205126408451270BB
:1000630004F512F5130511E511700205107D08E47E
:06007300FF120079808AF3
:0A00CC00EF1F70011E144E70F722A2
:02007900AC07D2
:10007B00E4FBEBC39D502BE4F580D2A2C2A2EB2C88
:10008B009000B893F580D2A3C2A3C374079B240836
:10009B00F8E6F580D2A2C2A27FC87E001200CC0B7C
:0200AB0080D003
:0100AD002230
:030000000200C03B
:0C00C000787FE4F6D8FD7581150200037E
:00000001FF
