:1002FB007580FFC2A4D2A5C2A600D2A6E580332288
:1002D9001202FB40FBC2A4C2A5D2A68F8000C2A60F
:0102E90022F2
:1002EA001202FB40FBD2A4C2A5D2A68F8000C2A6EE
:0102FA0022E1
:0A0317007F011202D97F050202C423
:10027F008F358D368B378A388939AB37AA38A939FC
:10028F001201CCFB6016AD36AF351202AC740125EE
:0D029F0039F539E43538F538053580DE22B3
:1002AC00AE07AC03ED7005EE24808003EE24C0FF96
:0802BC001202D9AF040202EAAC
:10020B007F381202D97F051202C47F381202D97FC0
:10021B00051202C47F381202D97F051202C47F383F
:10022B001202D97F081202D97F011202D97F06125E
:0B023B0002D91F1202C47F0C0202D97E
:03032100DFFE22DA
:1002C400AE07AF061EEF600C7FF51203217FF51217
:0502D400032180EE2271
:1002460075B00FE5B0540FF535640F60297F0A12BB
:1002560002C4E5B0540F640F601CE5B0540FF535C9
:1002660044F0F5B0E5B054F0FFE5B054F0FEBEF052
:08027600F8E5352FFF227FFFA0
:01027E00225D
:1000FC00120246EF1201E5014077013D7B013A7D8A
:10010C0001377E014CB70149BB0146BD0143BE011D
:10011C0058D70155DB0152DD014FDE0164E7016167
:10012C00EB015EED015BEE000001677F00227F01B9
:10013C00227F02227F03227F04227F05227F062258
:10014C007F07227F08227F09227F0A227F0B227FD2
:0E015C000C227F0D227F0E227F0F227FFF22BA
:10016A00202057656C636F6D65212000496E70759C
:10017A00742070617373776F7264210020202020CD
:10018A0020202020202020202020202000526967C3
:10019A006874204F70656E213E3E3E3E0057726F76
:1001AA006E6721205265747279210057726F6E67EB
:1001BA0020332074696D657321000102030405066A
:0201CA00070824
:1000030075340812020B7F0A1202C41203177BFF16
:100013007A01796AE4FDFF12027F7BFF7A01797628
:100023007D01E4FF12027F1200FC8F21E521F460C1
:10003300F6E522700C7BFF7A0179867D01FF1202BF
:100043007FE522C39410501074232522F8A6217B48
:100053002A7D01AF221202AC0522E521640F60055F
:10006300E522B410C2E52214FFE4F522EF653470F3
:1000730023D200FFEFC39534501A300011EF9001E3
:10008300C493FE74232FF8E6B50603D38001C3920D
:10009300000F80E03000227BFF7A0179867D01E446
:1000A300FF12027F7BFF7A0179977D01E4FF120241
:1000B3007FE4F533C20002002A7BFF7A0179867D53
:1000C30001E4FF12027F7BFF7A0179A77D01E4FF40
:1000D30012027F0533E5336403600302002A7BFFCA
:1000E3007A0179867D01FF12027F7BFF7A0179B560
:0900F3007D01E4FF12027F80FE92
:0300000002030BED
:0C030B00787FE4F6D8FD7581390200030C
:1001CC00BB010689828A83E0225002E722BBFE0231
:0901DC00E32289828A83E4932264
:1001E500D083D082F8E4937012740193700DA3A3A9
:1001F50093F8740193F5828883E4737402936860BD
:06020500EFA3A3A380DFBC
:00000001FF
