:1007C7007580FFC2A4D2A5C2A600D2A6E5803322B7
:1007A5001207C740FBC2A4C2A5D2A68F8000C2A66D
:0107B5002221
:1007B6001207C740FBD2A4C2A5D2A68F8000C2A64C
:0107C6002210
:0A07FD007F011207A57F0502000E20
:10076200AE07ED7005EE24808003EE24C0FF120771
:10077200A5120441FF600C1207B6740129F9E43A8C
:04078200FA80EE22E9
:10069A007F381207A57F0512000E7F381207A57F43
:1006AA000512000E7F381207A57F0512000E7F384B
:1006BA001207A57F081207A57F011207A57F061258
:0B06CA0007A51F12000E7F0C0207A501
:03000300DFFE22FB
:10000E00AE07AF061EEF600C7FF51200037FF512F0
:05001E00000380EE224A
:0A07F2000847140A06050C3700063C
:07061E00120625AD567F8A8C
:10062500D2965307FEE4FEEF30E004D2958002C275
:1006350095D294C294EFC313FF0EBE08EAE4FEED13
:1006450030E004D2958002C295D294C294EDC313D2
:07065500FD0EBE08EAC2968B
:01065C00227B
:1006D500D296430701E4FDEF30E004D2958002C2D3
:1006E50095D294C294EFC313FF0DBD08EAE4FDEE65
:1006F500C313FE309505430680800353067FD294CD
:0A070500C2940DBD08E9C296AF06CC
:01070F0022C7
:10055B00E4FF74472FF8E6FE75F00A84FDEE75F0A4
:10056B000A84744F2FF8A6F0EDC454F0FE744F2F8D
:10057B00F8EE26F60FBF08DAE4FD7F8E1206257D16
:10058B00807F80120625AD507F8C120625AD517FE2
:10059B0088120625AD527F8612061EAD537F84123C
:1005AB000625AD547F82120625AD557F8012061E9F
:0705BB007D807F8E02062502
:1005C2007F8C1206D58F507F881206D58F517F8679
:1005D2001206D58F527F841206D58F537F82120660
:1005E200D58F547F801206D5EF547FF5557F8A123E
:1005F20006D58F56E4FF744F2FF8E6FEC4540FFD64
:10060200EE540FFE74472FF8A606ED75F00AA4FE0D
:0B06120074472FF8EE26F60FBF08DB40
:01061D0022BA
:0B07E700C296C294E4FD7F800206254C
:100710004441544520253032642D253032642D2546
:100720003032642025640054494D45202530326420
:0B0730003A253032643A253032640074
:1003820012069A7F1412000E1207FD1208071207B6
:10039200E71207D71205C2E549254EFFE4334F7035
:1003A2000312055B300A26E4FFEF25E0240AF8E693
:1003B20075F00AA4FEEF25E0240BF8E62EFE744742
:1003C2002FF8A6060FBF08E112055BC20A3009D456
:1003D200C2091205C27536FF7537077538107539AF
:1003E2000085483A753B0085493C753D00854A3E8B
:1003F200753F00854E407B007A0079231200827B94
:10040200007A007923E4FDFF1207627536FF753723
:1004120007753827753900854B3A753B00854C3C8A
:10042200753D00854D3E7B007A0079231200827B68
:0F043200007A0079237D01E4FF1207620203A61E
:1007D700759850438920758DFDD28ED2AFD2AC2249
:0A080700438901D2AFD2A9D28C229E
:03000B0002078663
:02078600C0E0D1
:10078800758CF8758A300509E50970020508643228
:0A07980045087006F508F509D209BE
:0307A200D0E03272
:0300230002065D75
:0D065D00C0E0C0D075D000C000C006C007CE
:10066A0030981DC298AF99EF540FFE740A2522F8EC
:10067A00A6060522E522B41005752200D20A8F9932
:05068A00309902C29945
:0B068F00D007D006D000D0D0D0E03261
:030000000204CF28
:0C04CF00787FE4F6D8FD75815602051612
:10044100BB010689828A83E0225002E722BBFE02B9
:09045100E32289828A83E49322EC
:10002600E5422436F8E60542227833300702783670
:10003600E475F0011204990204412000EB7F2ED2F0
:10004600008018EF540F2490D43440D4FF30040BB2
:10005600EF24BFB41A0050032461FFE54360021584
:10006600430546E5467002054530070D7833E475CD
:10007600F001120499EF02048702073B7403D207CA
:100086008003E4C207F5428B338A348935E4F543AD
:10009600F545F546E54360077F2012006180F5755A
:1000A60044FFC201C200C202C203C205C206C208A0
:1000B60012002FFF700D3007057F00120072AF4649
:1000C600AE4522B4255FC2D5C20412002FFF24D04C
:1000D600B40A00501A75F00A784330D50508B6FF01
:1000E6000106C6A426F620D5047002D20380D924C0
:1000F600CFB41A00EF5004C2E5D204020272D20154
:1001060080C6D20080C0D20280BCD2D580BAD205C9
:1001160080B47F201200612002077401B5430040BD
:10012600F1120026FF12006102009AD208D2068060
:1001360095120026FB120026FA120026F94A4B7089
:100146000679437A037BFF20022EE543602A7E0070
:100156008E8275830012045A60060EEE654470F0B6
:10016600C2D5EBC0E0EAC0E0E9C0E0EE1202B9D0C9
:10017600E0F9D0E0FAD0E0FB120441FF60AAEBC040
:10018600E0EAC0E0E9C0E0120061D0E02401F9D065
:10019600E03400FAD0E0FBE5440460DCD544D980C5
:1001A600877BFF7A0279B5D202809C79108002792A
:1001B60008C206C2088008D2D5790A8004790AC224
:1001C600D5E544047002F544E4FAFDFEFF1200266C
:1001D600FC7B08200113120026FD7B1030000A125A
:1001E6000026FE120026FF7B20EC3382D592D550E6
:1001F60013C3E43000069FFFE49EFEE42001039D46
:10020600FDE49CFCE4CBF8C201EC700CCFCECDCC67
:10021600E824F8F870F38017C3EF33FFEE33FEEDF2
:1002260033FDEC33FCEB33FB994002FB0FD8E9EBD3
:10023600300105F8D0E0C448B201C0E00AEC4D4EEA
:100246004F78207B0070C2EAB5440040BCC0E01283
:1002560002BBD0F0D0E0200104C4C0E0C4B201C0AB
:10026600F012004AD0F0D5F0EB02009A1204A90170
:10027600375301B15801084C01044201B54F01BD85
:0F0286004401BD49011D4301C35501A74601A70E
:100295004501A747036350010C2D01102E01332B97
:1002A500011423013120034C2A00CC480000012B06
:1002B5003F3F3F00790AA2D5200314300509B91044
:1002C500020404B9080104A2D52006025001042045
:1002D50002689202B543005034C0E07F2030031914
:1002E5007F30A20272067205500F120312C202C2BB
:1002F50006C205C2087F30800F300503E9C0E01251
:100305000061300503D0E0F9D0E0B543CC300517E6
:100315007F30B9100C1200617F583004077F788058
:1003250003B908031200613002057F2D0200617FC9
:10033500202008F87F2B2006F322920280CF286E1A
:10034500756C6C2900D2011200263001F8C20178C3
:100355004330D50108F60200CC2D50434958120010
:10036500262403B405004001E490035E9312005275
:0D037500743A120052D2037543040201B124
:1004DB00020382E493A3F8E493A34003F68001F2B2
:1004EB0008DFF48029E493A3F85407240CC8C33322
:1004FB00C4540F4420C8834004F456800146F6DFF1
:10050B00E4800B01020408102040809007F2E47E87
:10051B00019360BCA3FF543F30E509541FFEE493E5
:10052B00A360010ECF54C025E060A840B8E493A3AC
:10053B00FAE493A3F8E493A3C8C582C8CAC583CAD7
:10054B00F0A3C8C582C8CAC583CADFE9DEE780BE8F
:0107FC0000FC
:10045A00BB010CE58229F582E5833AF583E0225057
:10046A0006E92582F8E622BBFE06E92582F8E222A1
:0D047A00E58229F582E5833AF583E49322BB
:10048700BB010689828A83F0225002F722BBFE0154
:02049700F3224E
:10049900FAE6FB0808E6F925F0F618E6CA3AF62264
:1004A900D083D082F8E4937012740193700DA3A3E2
:1004B90093F8740193F5828883E4737402936860F6
:0604C900EFA3A3A380DFF6
:10073B00EFB40A07740D120746740A309811A89982
:10074B00B8130CC2983098FDA899C298B811F6301E
:07075B0099FDC299F59922F6
:00000001FF
