:10030400C201D2937F05120007C2937FC81200076F
:100314007FC8120007D2937F32120007A293920182
:070324007F19120007A2017E
:01032B0022AF
:1002DB00E4F518F519751808C293E519C313F51948
:1002EB00D2933093034319807F191200071518E539
:0802FB0018D3940050E2AF1982
:0103030022D7
:0202B1008F18A4
:1002B300E4F519751908C293E5181392937F19127F
:1002C3000007D293E518C313F5181519E519D3944C
:0802D3000050E37F190200074F
:10024A00E4F517FFFEFDFC1203047FCC1202B17F16
:10025A00441202B17F0A12032C1203047FCC120249
:10026A00B17FBE1202B11202DB8F171202DBEF7FDF
:0B027A0000FEEF2517FDE43EFEAF057F
:010285002256
:03000700DFFE22F7
:10032C00AE07AF061EEF600C7FF51200077FF512CB
:05033C00000780EE2225
:100341003F065B4F666D7D077F6FFEFDFBF7EFDFBD
:02035100BF7F6C
:03000300010800F1
:10000E001203533000FDC20012024AAD07AC06ECDB
:10001E0030E710750B406305FF6304FF0DBD000153
:10002E000C8003E4F50BECC4F854F0C868F513ED3E
:10003E00C4540F48F514751500ED540FF516AE1592
:10004E00FF7C007D0612019E7D0A1201B08E158F77
:10005E0016AE13AF147C007D641201B0EF4E700427
:10006E00F50C800E74412FF58274033EF583E493F4
:10007E00F50CAE13AF147C007D641201B0EF4E7020
:10008E001FAE13AF14FC7D641201B07E007F0ACF49
:10009E00CDCFCECCCE1201B0EF4E7004F50D802632
:1000AE00AE13AF147C007D641201B07E007F0ACFC8
:1000BE00CDCFCECCCE1201B074412FF58274033E5B
:1000CE00F583E493F50DAE13AF147C007D6412013D
:1000DE00B07E007F0ACFCDCFCECCCE1201B0744110
:1000EE002DF58274033CF583E4934480F50E744140
:1000FE002516F58274033515F583E493F50F751106
:04010E0039020011A1
:10028600E4F580D2A2C2A2E5082F90034B93F58035
:10029600D2A3C2A3740B2508F8E6F580D2A2C2A2A7
:0A02A6000508E508B50503E4F508B6
:0102B000222B
:0A035300438901D2AFD2A9D28C2257
:03000B00020205E9
:10020500C0E0C083C082C0D075D000C000C005C0AA
:0102150007E1
:10021600758CF8758A307D08E4FF120286050AE5BA
:100226000A70020509B42C0DE509B4010875090028
:05023600750A00D20072
:0F023B00D007D005D000D0D0D082D083D0E03211
:03000000020112E8
:0C011200787FE4F6D8FD758120020159C9
:10019E00EF8DF0A4A8F0CF8CF0A428CE8DF0A42E75
:0201AE00FE222F
:1001B000BC000BBE0029EF8DF084FFADF022E4CC33
:1001C000F875F008EF2FFFEE33FEEC33FCEE9DECFC
:1001D000984005FCEE9DFE0FD5F0E9E4CEFD22ED42
:1001E000F8F5F0EE8420D21CFEADF075F008EF2F8C
:1001F000FFED33FD4007985006D5F0F222C398FD7D
:050200000FD5F0EA2219
:10011E0002000EE493A3F8E493A34003F68001F2E9
:10012E0008DFF48029E493A3F85407240CC8C333E2
:10013E00C4540F4420C8834004F456800146F6DFB1
:10014E00E4800B0102040810204080900003E47E3E
:10015E00019360BCA3FF543F30E509541FFEE493A6
:10016E00A360010ECF54C025E060A840B8E493A36D
:10017E00FAE493A3F8E493A3C8C582C8CAC583CA98
:10018E00F0A3C8C582C8CAC583CADFE9DEE780BE50
:0100060000F9
:00000001FF
