:100293003F065B4F666D7D077F6F777C395E7971B3
:0802A300FEFDFBF7EFDFBF7F5A
:03000600011200E4
:1001AD001202C01202CA75B0F03000FAC20012017C
:1001BD003FEFF460F1E508C39408502EEF900293E1
:1001CD0093FF740A2508F8A607E4F509E509D39508
:1001DD00085017740A2509F8E6FFC374079508251A
:1001ED00092413F8A607050980E20508E508B409F6
:1001FD00B5E4F508F509E509C3940850A97413256C
:08020D0009F8E4F6050980EE92
:0302D100DFFE222B
:1002AB00AE07AF061EEF600C7FF51202D17FF51281
:0502BB0002D180EE22DB
:10024200E4F580D2A2C2A2E5122F9002A393F58018
:10025200D2A3C2A374132512F8E6F580D2A2C2A2D9
:0A0262000512E512B50503E4F512DC
:01026C00226F
:0A02C000438901D2AFD2A9D28C22EB
:03000B00020215D9
:10021500C0E0C083C082C0D075D000C000C005C09A
:1002250007758CF8758A307D08E4FF120242D00705
:0D023500D005D000D0D0D082D083D0E032F0
:10000E0075B0F0E5B064F070030200B07F0A120222
:10001E00ABE5B064F070030200B075B0FEE5B064FD
:10002E00FE6019E5B054F0240EFDE5B0B4FEFB7F82
:10003E000A1202ABE5B0B4FEFBAF052275B0FDE5CA
:10004E00B064FD6019E5B054F0240DFDE5B0B4FDCB
:10005E00FB7F0A1202ABE5B0B4FDFBAF052275B013
:10006E00FBE5B064FB6019E5B054F0240BFDE5B080
:10007E00B4FBFB7F0A1202ABE5B0B4FBFBAF05226B
:10008E0075B0F7E5B064F76019E5B054F02407FDDC
:10009E00E5B0B4F7FB7F0A1202ABE5B0B4F7FBAFE5
:0400AE0005227FFFA9
:0100B200222B
:10013F0012000EEF12026D01837701807B017D7D2E
:10014F00017A7E018FB7018CBB0189BD0186BE018B
:10015F009BD70198DB0195DD0192DE01A7E701A492
:10016F00EB01A1ED019EEE000001AA7F00227F01AD
:10017F00227F02227F03227F04227F05227F062215
:10018F007F07227F08227F09227F0A227F0B227F8F
:0E019F000C227F0D227F0E227F0F227FFF2277
:0702CA00D2AFD2A8D28822B6
:030003000202D422
:0302D400D2003223
:030000000200B348
:0C00B300787FE4F6D8FD7581200200FA89
:10026D00D083D082F8E4937012740193700DA3A320
:10027D0093F8740193F5828883E473740293686034
:06028D00EFA3A3A380DF34
:1000BF000201ADE493A3F8E493A34003F68001F2A9
:1000CF0008DFF48029E493A3F85407240CC8C33342
:1000DF00C4540F4420C8834004F456800146F6DF11
:1000EF00E4800B0102040810204080900006E47E9B
:1000FF00019360BCA3FF543F30E509541FFEE49306
:10010F00A360010ECF54C025E060A840B8E493A3CC
:10011F00FAE493A3F8E493A3C8C582C8CAC583CAF7
:10012F00F0A3C8C582C8CAC583CADFE9DEE780BEAF
:0100090000F6
:00000001FF
