:100BA900C200D2937F05120003C2937FC8120003CB
:100BB9007FC8120003D2937F32120003A2939200DE
:070BC9007F19120003A200D6
:010BD0002202
:100B8000E4F539F53A753908C293E53AC313F53AF5
:100B9000D293309303433A807F191200031539E54D
:080BA00039D3940050E2AF3A92
:010BA800222A
:020B56008F39D5
:100B5800E4F53A753A08C293E5391392937F19126E
:100B68000003D293E539C313F539153AE53AD3941E
:080B78000050E37F19020003A5
:100ADF00E4F538FFFEFDFC120BA97FCC120B567FFD
:100AEF0044120B567F0A120C8F120BA97FCC120BDC
:100AFF00567FBE120B56120B808F38120B80EF7F72
:0B0B0F0000FEEF2538FDE43EFEAF05C0
:010B1A0022B8
:100CB5007580FFC2A4D2A5C2A600D2A6E5803322C4
:100CA400120CB540FBC2A4C2A5D2A68F8000C2A676
:010CB400221D
:050C7900120CA4E4FFD1
:100C7E00120CB540FBD2A4C2A5D2A68F8000C2A68C
:010C8E002243
:0A0CDF007F01120CA47F05020C8FA8
:100C1F00AE07ED7005EE24808003EE24C0FF120CAA
:100C2F00A41204D6FF600C120C7E740129F9E43A69
:040C3F00FA80EE2227
:100C6100AE07AC03ED7005EE24808003EE24C0FFD7
:080C7100120CA4AF04020C7E7A
:100B1B007F38120CA47F05120C8F7F38120CA47F28
:100B2B0005120C8F7F38120CA47F05120C8F7F38A7
:100B3B00120CA47F08120CA47F01120CA47F0612C6
:0B0B4B000CA41F120C8F7F0C020CA4E6
:100A62007F40120C797F41120CA47F04120C7E7F0E
:100A720042120CA47F0E120C7E7F43120CA47F0E36
:100A8200120C7E7F44120CA47F0E120C7E7F451244
:100A92000CA47F1F120C7E7F46120CA47F04120C42
:100AA2007E7F47120C797F48120CA47F03120C7EC2
:100AB2007F49120CA47F03120C7E7F4A120C797FAD
:100AC2004B120C797F4C120C797F4D120C797F4EB0
:0D0AD200120C797F4F120CA4E4FF020C7E81
:03000300DFFE22FB
:100C8F00AE07AF061EEF600C7FF51200037FF51263
:050C9F00000380EE22BD
:100C4300207777772E646F666C79652E6E657420D6
:0E0C53000054656D7020202520372E3366007A
:0E0CC500759850438920758DFDD28ED29922EC
:1009E100120B1B7F14120C8F120CDF120CE9120C6C
:1009F100C5120A627BFF7A0C7943E4FDFF120C1FDA
:100A01007B017D017F0D120C617B437D017F0E1205
:100A11000C613009FDC209120ADF8E228F23AC223C
:100A2100AD23EC120119E4FBFA7980783D12000E36
:100A31008F278E268D258C24753BFF753C0C753DCB
:100A4100548F418E408D3F8C3E7B007A0079281275
:100A510005CE7B007A0079287D01E4FF120C1F800E
:010A6100B1E3
:0A0CE900438901D2AFD2A9D28C22B8
:03000B00020BD114
:040BD100C0E0C0D0F0
:100BD500758CF8758A300509E50970020508B42C8D
:0E0BE5000DE508B40108750800750900D20975
:050BF300D0D0D0E0327B
:10000E00EC4D6011E8497017ED33EC3304600DE4EC
:10001E00FCFFFEFD22E933E8330470F8020187127B
:10002E00015258046009E4CC24815006285009027C
:10003E00019128400302018EC0E0EB4A7044B98062
:10004E0006D0E0FB02017DEF4E701CBD8008EBFF79
:10005E00EAFEE9FD80EBE98DF0A4FEE5F00200F783
:10006E00E9CDF9EAFEEBFFEF89F0A4FCE5F0CE89CD
:10007E00F0A42EFFE435F0CD89F0A42DFEE435F08A
:10008E008067EF4E7005BD80D780C3EF8BF0A4ACB8
:10009E00F0EE8BF0A42CFCE435F0F8EF8AF0A42CF3
:1000AE00E5F038FCE433CB8DF0A42CFCE5F03BF806
:1000BE00EE8AF0A42CFCE5F038F8E433CF89F0A4F6
:1000CE002CFCE5F038CF3400CE89F0A42FFFE5F0FC
:1000DE003EFEE433C98DF0A42EFEE5F039CD8AF054
:1000EE00A42FFFE5F03EFEE43DFD33D0E0FB5007CC
:1000FE000BBB000F020191EC2CFCEF33FFEE33FE35
:06010E00ED33FD02016962
:1001140075F020800E75F010800575F0087D007E66
:10012400007F003392D530D50312052EEC334010F6
:10013400EF33FFEE33FEED33FDEC33FCD5F0ED226F
:0E014400E5F0247EA2D513CC92E7CDCEFF22AB
:10057200E54F243BF8E6054F227838300702783BF6
:10058200E475F00112053C0204D62000EB7F2ED266
:10059200008018EF540F2490D43440D4FF30040B61
:1005A200EF24BFB41A0050032461FFE55060021526
:1005B200500553E5537002055230070D7838E47543
:1005C200F00112053CEF02051C020BF87403D2077E
:1005D2008003E4C207F54F8B388A39893AE4F55033
:1005E200F552F553E55060077F201205AD80F57591
:1005F20051FFC201C200C202C203C205C206C20842
:1006020012057BFF700D3007057F001205BEAF5348
:10061200AE5222B4255FC2D5C20412057BFF24D09C
:10062200B40A00501A75F00A785030D50508B6FFA2
:100632000106C6A426F620D5047002D20380D9246E
:10064200CFB41A00EF5004C2E5D2040208ABD201C3
:1006520080C6D20080C0D20280BCD2D580BAD20578
:1006620080B47F201205AD2002077401B55000400E
:10067200F1120572FF1205AD0205E6D208D206801C
:1006820095120572FB120572FA120572F94A4B7045
:100692000679A27A097BFF20022EE550602A7E00AD
:1006A2008E827583001204EF60060EEE655170F0C3
:1006B200C2D5EBC0E0EAC0E0E9C0E0EE12090BD01F
:1006C200E0F9D0E0FAD0E0FB1204D6FF60AAEBC05A
:1006D200E0EAC0E0E9C0E01205ADD0E02401F9D0C3
:1006E200E03400FAD0E0FBE5510460DCD551D9805A
:1006F20087D20280A21208EE60F7E551700104125F
:10070200019CA951600DE551600914F5511209953A
:10071200EF60F3EA30E702F404C3995077EAF42574
:10072200510430E701E404F551800D1208EE60C176
:10073200EA0551255112019CEA784EF630E701E4B0
:10074200255104D551042005011412090BE4C0E01F
:10075200120995784EE6601320E70714F612059504
:10076200802204F6D0E014C0E07F00120595E55126
:10077200600712058C1551800B30050312058CD0D1
:10078200E00205E6D0E00480C51208EE60A0E55163
:100792000412019C784EEAF6E5512005026001043C
:0507A200240412090B04
:1007A70074FF04C0E0120995120595E55120050272
:1007B700600312058CD0E0B551E87F4512059F789C
:1007C7004EE67F2B30E7047F2DF404C0E01205AD21
:1007D700D0E075F00A84C0F0120596D0E0120596B5
:1007E7000205E6791080027908C206C2088008D29D
:1007F700D5790A8004790AC2D5E551047002F5510A
:10080700E4FAFDFEFF120572FC7B082001131205B6
:1008170072FD7B1030000A120572FE120572FF7B13
:1008270020EC3382D592D55013C3E43000069FFFE6
:10083700E49EFEE42001039DFDE49CFCE4CBF8C2AA
:1008470001EC700CCFCECDCCE824F8F870F380170C
:10085700C3EF33FFEE33FEED33FDEC33FCEB33FB3D
:10086700994002FB0FD8E9EB300105F8D0E0C44806
:10087700B201C0E00AEC4D4E4F78207B0070C2EA0F
:10088700B5510040BCC0E012090DD0F0D0E0200106
:1008970004C4C0E0C4B201C0F0120596D0F0D5F090
:1008A700EB0205E612054C06835307EA5806544C3B
:1008B70006504207EE4F07F64407F6490669430715
:1008C700FC55072D46078B4506F74709C2500658C2
:1008D7002D065C2E067F2B066023067D2009AB2A9A
:1008E70006184800000677E551B4FF037551061254
:1008F7000572FC120572FD120572FE120572FF7871
:10090700470201CB790AA2D5200314300509B91093
:10091700020404B9080104A2D520060250010420EC
:1009270002689202B550005034C0E07F20300319AE
:100937007F30A20272067205500F120964C202C20A
:1009470006C205C2087F30800F300503E9C0E012F8
:1009570005AD300503D0E0F9D0E0B550CC30051730
:100967007F30B9100C1205AD7F583004077F7880AF
:1009770003B908031205AD3002057F2D0205AD7FCF
:10098700202008F87F2B2006F322920280CF7F00D9
:10099700B4070050052447F8E6FF22286E756C6CF3
:1009A7002900D2011205723001F8C201785030D502
:1009B7000108F60206182D50434958120572240300
:1009C700B405004001E49009BD9312059E743A12E4
:0A09D700059ED2037550040207EAE2
:10015200E9D2E7C933E833F892D5EDD2E7CD33ECF3
:0701620033FC5002B2D5226C
:10016900EC30E7100FBF000C0EBE00080DBD0004F7
:100179000BEB6014A2D5EB13FCED92E7FD2274FFA3
:10018900FCFDFEFF22E480F8A2D574FF13FC7D80FC
:03019900E480EF10
:10019C00F920E72824F950037907E4F42402FB182A
:1001AC00DBFDE624FB5014E9600DE4F618E604F6DA
:0F01BC00B40A08E4F6D9F57401F60A22C2D52276
:1001CB00ED33EC3392D5FA602AB4FF33EDC2E77B03
:1001DB00FF60067A0179F0E4227A0179F920D504DF
:1001EB007A0179F4224E614E002B494E46002D497F
:1001FB004E4600E47A08F608DAFC7B00740722E826
:10020B00C0E0ECC0E0EDC0E0EEC0E0EFC0E0EA75AE
:10021B00F010A4CAABF075F04DA42BFBE435F0FC49
:10022B00EA2410FAEB34C5FBEC34D9FCEDC2E7FF42
:10023B0075F056A4F42411C5F0F434C58FF0A42A3C
:10024B00E5F03BE43CF620E714120496D0E0FFD037
:10025B00E0FED0E0FDD0E0FC1203C98014F40412E0
:10026B000496D0E0FFD0E0FED0E0FDD0E0FC120021
:10027B000ED0E0F8E6FAEDD2E7CD33EC332482FB77
:10028B00E4C3CF33CFCE33CECD33CD33DBF37B07CC
:10029B0075F00A846004F6081B0AE5F0F6088FF087
:1002AB00740AA4FFACF08EF0740AA42CFEACF050D0
:1002BB00010C8DF0740AA42CFDE435F0F608DBDE9E
:0302CB0074072293
:1002CE00020187E86480F8E933E83360110460F0D6
:1002DE00ED33EC337009E8FCE9FDEAFEEBFF220496
:1002EE0060DED3EB9FEA9EE99DE8C2E78CF0C2F791
:1002FE0095F0400CE8CCF8E9CDF9EACEFAEBCFFB5D
:10030E0012015285D0F05804700320D5B3E8047062
:10031E00075002B2D502019192D5EC0460F7E4CCFD
:10032E00C0E0C398F8603B94186008400DD0E0FB25
:10033E00020169E4FBFAC9FC8028E830E406E4C94E
:10034E00FBE4CAFCE830E305E4C9CACBFCE8540779
:10035E006010F8C3E913F9EA13FAEB13FBEC13FC84
:10036E00D8F130F52FC3E49CFCEF9BFFEE9AFEED27
:10037E0099FDD0E0FBEF4E4D4C701222DB030201D3
:10038E008EEC2CFCEF33FFEE33FEED33FDED30E75C
:10039E00EB020169EF2BFFEE3AFEED39FDD0E0FBEB
:1003AE0050130BBB0003020191ED13FDEE13FEEF94
:0803BE0013FFEC13FC020169BE
:1003C600020191EC5D046005E8590470030201879F
:1003D600120152580460F6EC4860F2EC7004FDFE1F
:1003E600FF22C860DB2481C85009C398600250060A
:1003F60002018E9850CAF582E9294B4A7005AB82F4
:1004060002017D75F0007C1A7880C3EF9BEE9AEDB1
:1004160099400DC3EF9BFFEE9AFEED99FDE842F081
:10042600DC23ACF0D0E0FFD0E0FED0E0FDAB8220D4
:10043600E7101BEB60BAEC2CFCEF33FFEE33FEED5E
:1004460033FD020169E803F830E705C0F075F000F6
:10045600EF2FFFEE33FEED33FD40B830E7C280AA42
:100466003F8000004120000042C80000447A00009E
:10047600461C400047C35000497424004B18968020
:100486004CBEBC205A0E1BCA6753C21C749DC5AE17
:10049600FB60065407601C23231204C4EB54386027
:1004A600091204B01204BF12000EECF8EDF9EEFAD0
:1004B600EFCB22EB1204BF80F1543803241C9004C6
:1004C60066FE93FC0EEE93FD0EEE930ECE93FF2288
:03000000020CD31C
:0C0CD300787FE4F6D8FD7581530209E13A
:1004D600BB010689828A83E0225002E722BBFE0224
:0904E600E32289828A83E4932257
:1004EF00BB010CE58229F582E5833AF583E02250C2
:1004FF0006E92582F8E622BBFE06E92582F8E2220C
:0D050F00E58229F582E5833AF583E4932225
:10051C00BB010689828A83F0225002F722BBFE01BE
:02052C00F322B8
:0E052E00C3E49FFFE49EFEE49DFDE49CFC22DE
:10053C00FAE6FB0808E6F925F0F618E6CA3AF622C0
:10054C00D083D082F8E4937012740193700DA3A33E
:10055C0093F8740193F5828883E473740293686052
:06056C00EFA3A3A380DF52
:100BF800EFB40A07740D120C03740A309811A899FF
:100C0800B8130CC2983098FDA899C298B811F6305C
:070C180099FDC299F5992234
:00000001FF
